:10000000001A0020511000006B6300003D1000003A
:100010003D1000003D1000003D1000003D100000AC
:10002000000000000000000000000000C9110000F6
:100030003D10000000000000611100003D100000B4
:100040007913000079130000791300007913000080
:100050007913000079130000791300007913000070
:100060007913000079130000791300007913000060
:100070007913000079130000791300007913000050
:1004700079130000791300007913000053B94AB9C9
:10048000002908BF00281CBF4FF0FF314FF0FF309C
:1004900000F00CB8ADF1080C6DE904CE00F008F8DE
:1004A000DDF804E0DDE9022304B07047704700BFC7
:1004B0002DE9F04786468C460846089E1546744648
:1004C0001946002B40F0C1808542B2FA82F245D92C
:1004D0004AB1C2F1200300FA02FC954094402EFA82
:1004E00003F343EA0C0C4FEA154EA8B2230CBCFBF5
:1004F000FEF80EFB18CC08FB00F943EA0C439945C3
:1005000028D9EB1808F1FF3704D2994502D9A8F190
:1005100002072B44A3EB0903A4B2B3FBFEFC0EFBC2
:100520001C330CFB00F044EA0344A04214D92C19FC
:100530000CF1FF3304D2A04202D9ACF102032C44E7
:10054000241A43EA07401EB1D4400023346073608C
:10055000BDE8F0874746DDE76346F1E792BB431B02
:1005600001214FEA154EAFB2200CB3FBFEFC0EFB8F
:100570001C330CFB07F840EA0343984561D9EB189C
:100580000CF1FF3004D2984502D9ACF102002B44A3
:10059000A3EB0803A4B2B3FBFEFC0EFB1C330CFB65
:1005A00007F744EA0344A7424DD92C190CF1FF3355
:1005B00004D2A74202D9ACF102032C44E41B43EA63
:1005C0000040C0E7C2F120039540944020FA03F1B7
:1005D0002EFA03F34FEA154E9040AFB20343B1FB3E
:1005E000FEFC0EFB1C10190C0CFB07F841EA004145
:1005F000884522D969180CF1FF3004D2884502D908
:10060000ACF102002944A1EB08019BB2B1FBFEFC56
:100610000EFB1C110CFB07F743EA01439F420ED966
:10062000EB180CF1FF3104D29F4202D9ACF1020168
:100630002B44DB1B41EA004193E76046E3E7614658
:10064000F7E76046A4E76346B8E7834206D916B9E0
:10065000002108467CE7C6E900E0F9E7B3FA83F732
:100660008FB9834201D3724508D8BEEB020460EB18
:10067000030301209C461EB9002169E73846FAE7CA
:10068000C6E9004CF8E7C7F1200CBB400EFA07F5AD
:1006900022FA0CF42EFA0CF1BA401C4320FA0CF3A7
:1006A000B8404FEA144901431FFA84FEB3FBF9F83E
:1006B00009FB18300B0C08FB0EFA43EA00439A457D
:1006C00040D9E31808F1FF3004D29A4502D9A8F1C5
:1006D00002002344A3EB0A0389B2B3FBF9F809FB38
:1006E000183308FB0EFE41EA03418E452CD96118F0
:1006F00008F1FF3304D28E4502D9A8F10203214448
:1007000043EA0040A1EB0E01A0FB02984145CE4612
:10071000434602D306D14D4504D20138B9EB020E4F
:1007200068EB0403002EA7D0B5EB0E0261EB0301CA
:1007300001FA0CFC22FA07F3F9404CEA0303C6E97C
:10074000003199E74046C5E74346D9E710B582B086
:10075000314807F0BCFD002856D054212F4805F041
:1007600066FC00240FE0224621462D4805F05FFC80
:1007700024E021462B4805F05AFC013447F61220AC
:10078000002103F0E1FC8DF80440C4F307238DF849
:100790000530C4F307438DF80630230E8DF807307B
:1007A000542304220DEB02011B4805F0DFFA024638
:1007B0000028D8D021461C4805F039FC0A2005F055
:1007C000F1FA00230093542304226946124805F0ED
:1007D000DBFA02460028CCD19DF800209DF80130BC
:1007E00042EA03229DF8023042EA03429DF80330B8
:1007F00042EA0362944205D00C4B21460C4805F0B6
:1008000016FCBAE70B4BF8E70B4805F010FC6FF04D
:10081000120002B010BD00BFF48D00005C97000014
:10082000A8970000C49700008C9700002C97000048
:10083000E0970000289700003897000008B5024BA9
:100840001B68984708BD00BFD0000020014B18600E
:10085000704700BFD000002000B585B00A460023D5
:10086000009301930293039302238DF80230044B0B
:1008700001930146684605F007F805B05DF804FBF2
:100880003D08000080B505460E461746984603F021
:10089000BFFC034608F024FA0446DFF8189049F834
:1008A0000030424639463046A84754F8090000F067
:1008B0003DFC00BF080000002DE9F04383B0044672
:1008C00008461546238B13F0080F05D103F00706E1
:1008D00000230093019354E0012909D043F0200341
:1008E000238385F31188BFF36F8F03B0BDE8F083D6
:1008F00043F010032383F4E7204605F0D0FB42E0E9
:10090000D4F814904A466946204605F0E1FB4FF0C2
:100910000008238B03F00707B74269D0A268002ABA
:1009200066D0012243F00803238385F31188BFF3C7
:100930006F8F002A64D1009B2BB14B463A46694623
:10094000204605F03EFCB8F1000F02D034492046A5
:10095000C047EFF31185202383F31288BFF36F8F15
:10096000238B23F008032383238B13F0100F4DD028
:1009700023F0100323830120268B06F007060028AE
:10098000AFD00228B8D00028ABD0013804282BD82B
:1009900001A353F820F000BF01090000E90900009D
:1009A000AD090000C1090000D50900002369D3F892
:1009B00000800621204605F048FB4FF00009A8E71B
:1009C0002369D3F804800421204605F03EFB4FF054
:1009D00000099EE72369D3F808800521204605F029
:1009E00034FB4FF0000994E74FF00008C14690E750
:1009F000009A0AB1002295E7B8F1000F92D1B3E74F
:100A00004A463946204605F028FB94E713F0200FAC
:100A100004D023F0200323830220ADE70020ABE7BE
:100A2000F1610000014B036000207047FC9700005B
:100A300008B5034805F0FBFA024805F0F8FA08BDCE
:100A4000FC9700003498000008B50348034A121AC6
:100A5000002105F07CFC08BDD8020020BC0C002061
:100A600008B50648064A121A064905F074FC0648FD
:100A7000064A121A064905F06EFC08BD4000002027
:100A8000D4020020C09E0000400000204000002052
:100A9000C09E000010B5044683684268016809489A
:100AA00005F0C5FA63692269E168074805F0BFFAF5
:100AB000E169064805F0BBFAA169054805F0B7FAF7
:100AC00010BD00BF6498000094980000C498000016
:100AD000D498000038B504460D4611B10846FFF71A
:100AE000D9FF012C04D02946204602F0DDFC38BD98
:100AF000EFF305811039024805F099FAF3E700BFDA
:100B00000499000030BFFFF7FDBF00BF38B50446B1
:100B1000054D2A46054908F06BF8054A0021601981
:100B200008F073F838BD00BF00000000F096000028
:100B30000400000070B50646064D074B1D444C1BD3
:100B40002046FFF7E3FF083CC6F8804005F10800A7
:100B500070BD00BF0000000004000000054B5A6992
:100B60009B689A4204D0044A536843F08053536010
:100B7000704700BF4806002000ED00E081690D4B82
:100B80005A6942F480725A61BFF34F8FBFF36F8F7F
:100B900031F8021C5A6922F480725A61BFF34F8FF8
:100BA000BFF36F8F4DF60273994201D0002070475A
:100BB0000120704700ED00E04FF0000C83F800C00A
:100BC00002F07F4CBCF17F4F12D102F00C0CBCF153
:100BD000080F04D012F0080F07D00846704708B578
:100BE000044805F024FA002008BD01221A7070475D
:100BF0000020704718990000F8B505460F461446C6
:100C0000324805F014FA324B9B6A13F0100F31D1C1
:100C100010262F4B9B6A13F0080F30D12C4B9B6A88
:100C200013F0020F30D12A4B9B6A13F0010F43D10E
:100C3000274B9B6A13F0200F43D1254B9B6A13F07F
:100C4000100F01D1224B9B6A214B9B6A13F0200F9E
:100C500004D01F4A536A23F4005353621C4A936A18
:100C600043F0FF0393620121284605F084FB2070C6
:100C70003046F8BD174805F0DAF91126C9E71648DD
:100C800005F0D5F91226C9E7144805F0D0F9104B44
:100C9000596B9B6A13F0800F01D11326C3E71048EC
:100CA00005F0C5F937B10A4A936A23F080039362CD
:100CB0001326B8E71326B6E70A4805F0B8F9142654
:100CC000B6E7094805F0B3F91526B6E744990000E0
:100CD00000ED00E05C99000090990000A4990000EC
:100CE000C0990000D8990000F8990000F8B50546B1
:100CF0000F4614462F4805F09AF92F4B9B6A13F4C0
:100D0000805F25D116262C4B9B6A13F4006F24D1EB
:100D1000294B9B6A13F4007F24D1274B9B6A13F461
:100D2000806F37D1244B9B6A13F4807F37D1224BDD
:100D30009B6A13F4005F37D11F4A936A43F47F43E1
:100D400093620121284605F016FB20703046F8BD5D
:100D50001A4805F06CF91726D5E7194805F067F928
:100D60001826D5E7174805F062F9134B996B9B6A73
:100D700013F4004F01D11926CFE7134805F057F9B6
:100D800037B10D4A936A23F4004393621926C4E7EE
:100D90001926C2E70D4805F04AF91A26C2E70C48A1
:100DA00005F045F91B26C7E70A4805F040F91C265F
:100DB000C2E700BF289A000000ED00E0409A000062
:100DC00090990000549A0000709A0000889A0000E0
:100DD000A49A0000F899000008B5294805F027F901
:100DE000284B9B6A13F0007F26D11D20254B9B6A60
:100DF00013F0807F25D1234B9B6A13F4801F25D1EC
:100E0000204B9B6A13F4002F25D11E4B9B6A13F4D1
:100E1000802F25D11B4B9B6A13F4003F25D1194B22
:100E20009B6A13F4803F25D1164A936A6FEA034305
:100E30006FEA1343936208BD134805F0F8F81E20CB
:100E4000D4E7124805F0F3F81F20D4E7104805F066
:100E5000EEF80220D4E70F4805F0E9F82120D4E7A6
:100E60000D4805F0E4F82220D4E70C4805F0DFF83F
:100E70002320D4E70A4805F0DAF82420D4E700BF9D
:100E8000C09A000000ED00E0DC9A0000F09A00003B
:100E90000C9B0000389B0000589B0000809B0000CA
:100EA0009C9B000070B506460D46264805F0BFF82D
:100EB00000232B70244BDC6A14F002040AD1224B6D
:100EC000DB6A002B0BDB204BDC6A14F080440AD178
:100ED000204670BD1D4805F0AAF80024F8E71C481C
:100EE00005F0A5F8F4E71B4805F0A1F83046FFF738
:100EF00045FE98B9144B9B6A13F0FF0F14D1124BA7
:100F00009C6A14F47F4416D10F4B9B6AB3F5803F63
:100F1000DED33046FFF760FF0446D9E731680E485C
:100F200005F085F83468D3E72A4601213046FFF7FB
:100F300063FE0446CCE72A4601213046FFF7D6FE81
:100F40000446C5E7C89B000000ED00E0E09B000000
:100F5000049C0000149C0000349C000008B5002391
:100F60000B70024805F063F808BD00BF549C0000F8
:100F700008B50A460F2905DC0349103A034805F075
:100F800056F808BD0249F8E77C9C0000B09C0000C0
:100F9000949C000030B58BB01F4B5D68C5F308050D
:100FA000002383F31188BFF36F8F0DF12603FFF742
:100FB00003FE04460DF12702294605F0DEF99DF8EF
:100FC00027300BB10BB030BD05460DF1040C206885
:100FD0006168A268E368ACE80F0020696169A269F2
:100FE000E369ACE80F009DF826304BB1089BC3F3D2
:100FF00008025AB96FEA53236FEA4323089305E0C6
:10100000089B23F4FF7323F00103089301A92846EA
:10101000FFF760FDD6E700BF00ED00E0064B5A6920
:1010200042F010025A615A6942F480625A615A6968
:1010300022F008025A61704700ED00E0EFF30880EB
:10104000EFF3098101B57246FFF7A4FF01BD00BFB0
:10105000002080F31488BFF36F8F002080F30A888C
:1010600080F30B880F4880F3088801F099F900207D
:101070000D490860BFF34F8F00F02EF8202080F359
:1010800011880A484FF40061401880F30988EFF393
:1010900014800221084380F31488BFF36F8F00F09F
:1010A000F5F80000001A002094ED00E0C00C0020CC
:1010B000084BD3F89000C0F30720002306E0054A50
:1010C000C2F898300021C2F8A01001338342F6DB49
:1010D000704700BF00ED00E010B572B6002484F345
:1010E0001388FFF7E5FF234608E003F120010E4ACD
:1010F0004FF0FF3042F821000133DBB20F2BF4D95F
:10110000002308E003F16001074A4FF0FF3042F886
:1011100021000133DBB20F2BF4D962B6BFF34F8F3E
:10112000BFF36F8F10BD00BF00E100E008B50A4BB0
:101130009B68834202D003F071F808BDEFF305838A
:10114000002BF8D0054B5A6842F080525A605A6A18
:1011500022F400425A62EEE74806002000ED00E06B
:1011600016498A684FF030001044EFF3098C80E88C
:10117000F01F202080F31288BFF36F8F104F4FF0C5
:1011800000664A698A603E60D2F880000D4C20609B
:10119000D2F884000023C2F8843080F3118802F171
:1011A000300090E8F01F8CF3098802F1000004B5CC
:1011B00005F01EF9BDE80440704700004806002015
:1011C00004ED00E0100500201EF0040F0CBFEFF34B
:1011D0000880EFF30980816911F8021C0229FFD011
:1011E00001B5724605F0BBF801BD00BF002807DB62
:1011F00000F01F02400901239340024A42F82030C8
:10120000704700BF00E100E000280CDB00F01F0287
:101210004009012393402030034A42F82030BFF3B5
:101220004F8FBFF36F8F704700E100E0002808DBAD
:101230004901C9B200F1604000F5614080F8001337
:10124000704700F00F004901C9B2014B19547047B3
:1012500014ED00E04209054B53F8222000F01F0076
:10126000012303FA00F01040704700BF00E100E0E6
:10127000044B23F07F03044A9360BFF34F8FBFF307
:101280006F8F70470000000000ED00E008B5FFF729
:10129000EFFF074AD2F8883023F47003C2F8883091
:1012A000FFF7D2FBFFF7DCFB00F04CF802F016FA78
:1012B00000ED00E010B4A2F120040E4942F8081C31
:1012C00021F0010142F8081C42F8203C019B42F841
:1012D0001C3C029B42F8183C039B42F8143C4FF024
:1012E000807342F8043C04650023C0F8843010BCCD
:1012F000704700BF8508000000B50E4615460C4B30
:101300009860D0F880200B4B1A60036F83F30B8832
:101310002C4686F309880020034B9847204600217D
:1013200000220023014C2047FF63000085080000D5
:101330004806002010050020014B10221A6170475A
:1013400000ED00E0002206E003F00F030949194414
:1013500020230B760132B2F5877F0ADC13B2002B13
:10136000F2DB03F1604303F56143202183F80013AE
:10137000F0E77047FCEC00E008B5EFF30583103BA5
:10138000044A02EBC301496852F833008847FFF76B
:10139000E5FB08BD148E000010B584B00A4C23464E
:1013A0000A4A01210A4805F026F900230193029315
:1013B0000393084B0193E41A0294012101A805F05C
:1013C0001EF904B010BD00BF00F002200000002094
:1013D000C49C0000D8020020024B034AC3F8C0207E
:1013E000704700BF00ED00E0AAFF4400034BC3F8C4
:1013F0009800C3F89C10C3F8A020704700ED00E0EF
:101400000E4BC3F89800C3F89800D3F89C000A7AF2
:1014100060F304020A72D3F8A020C2F34202087AF1
:1014200062F347100872D3F89C2022F01F020A6072
:10143000D3F8A03023F01F03CB60704700ED00E02D
:10144000084BD3F89030C3F30723013B984205D8EB
:1014500010B5044605F000F8204610BD6FF01500E9
:10146000704700BF00ED00E02DE9F04F87B08146E6
:10147000009101931446002734E0C34565D1294605
:10148000C0B205F00FF82CE0584AC2F89860D2F8C4
:101490009C3003F01F0321F01F010B43C2F89C3066
:1014A0002946E0B204F0FEFF044610F1160F00F0EA
:1014B0009680013415E0013B4C49C1F89860D1F8A1
:1014C000A02002F01F0223F01F031343C1F8A03035
:1014D0002946E0B204F0E6FF044610F1160F7ED074
:1014E00001340137009B9F4279DA07EB47054FEA49
:1014F000850A09EB85056E68002EF2D0019B23B1A9
:10150000284604F0BDFF002865D0314659F80A008E
:1015100004F0EAFF064610F1160F5FD0844262DD48
:10152000324BC3F89800D3F89C2022F01F02C3F876
:101530009800D3F8A03043F01F0859F80A306968C2
:10154000194401F1FF3B934297D093429CD0C3458D
:10155000B1D0013B2549C1F89860D1F8A02002F034
:101560001F0223F01F031343C1F8A0302946E0B245
:1015700004F098FF044610F1160F30D001301B4BD9
:10158000C3F89860D3F89C109DF8102061F3040212
:101590008DF81020D3F8A030C3F34203D2B263F326
:1015A00047128DF8102059F80A306A6813440293E4
:1015B00023F01F03A8EB0B084344013B23F01F0358
:1015C000059302A9C0B2FFF73BFF044610F1160FC6
:1015D00005D0013485E76FF0150400E0044620468D
:1015E00007B0BDE8F08F6FF01504F8E700ED00E0FC
:1015F00010B5034C01232278FFF736FF207010BD91
:10160000B80C002070B505460E46002400E00134F9
:10161000A6421EDD04EB44039A0005EB83035968E0
:101620000029F4D0A85804F05FFF04EB84030B4AB0
:1016300042F8230010F1160F0CD0094B1B7898428A
:1016400009DA04EB840302EB83010431FFF7D8FECF
:10165000DDE7002070BD6FF01500FBE714050020EA
:10166000B80C0020044B0522C3F89420BFF34F8F21
:10167000BFF36F8F704700BF00ED00E0BFF35F8FD7
:10168000024B0022C3F89420704700BF00ED00E039
:1016900038B51C4B1D681C4BD3F89030C3F307239F
:1016A0009D422BD8FFF7EAFFFFF796FE002407E0E4
:1016B000144B596801EB0411204604F0CDFE0134AF
:1016C000A542F5D81148057004F01FFF10F1160F60
:1016D00013D00E4B1A780C4BD3F89030C3F307237A
:1016E0009A4207DA084BC3F898200021C3F8A010EB
:1016F0000132F0E7FFF7B6FF002038BD4FF0FF30B2
:10170000FBE700BFD09C000000ED00E0B80C00201B
:1017100008B5024B1B689847002008BD280500202B
:10172000034B1860034A937843F0020393707047A9
:1017300028050020D400002008B5064921F0070143
:10174000C1F1005202F53C32034804F0F0FB0020E6
:1017500008BD00BF071A00202C05002068B108B59D
:10176000064A074B1B680749A1FB03139B0C00FBB0
:1017700003F042F00103984708BD7047109700003E
:101780000C02002083DE1B43234BD3F82436C3F323
:10179000080282F48072C3F3094388324FF47A61FD
:1017A00001FB03F31D4901FB02335B001C4AA2FB52
:1017B0000312D20B4FF4FA2101FB1231B1F57A3F3B
:1017C00000D30132174BC3F80429134BD3F820364A
:1017D000C3F3080282F48072C3F3094302F21722B2
:1017E0004FF47A6101FB03F342F21C5101FB023317
:1017F0001B0A0B4AA2FB031292094FF47A7101FBF8
:101800001231B1F5FA7F00D30132064BC3F81C2721
:101810000122C3F80026704700C0FF00F82A0080AC
:10182000D34D62100000125008B5044B044A1A60F0
:1018300000F008F8FFF7A8FF002008BD0C02002008
:101840000020A107024B0122C3F80424704700BF07
:10185000002008E0094BD3F80C3403F48033014630
:1018600018B1B3FA83F2520902701BB10B781BB1A5
:1018700000207047002070470120704700E01050A2
:10188000004870478C050020034BC01A8010034BA2
:1018900003FB00F0704700BF4C050020B76DDBB6BE
:1018A00038B505460C46FFF7EFFF014640220348D6
:1018B00004F024FF01462846A04738BD548D00009F
:1018C00030B583B005460C46FFF7DEFF01464023E6
:1018D00000932346054A064804F02AFF011E01DB57
:1018E00003B030BD2846A047FAE700BF7967000083
:1018F000548D000008B5022806D0042803D1002129
:10190000044804F0E9FE08BD0121024804F0E4FEA9
:10191000F9E700BF548D000010B582B0EFF31184D9
:10192000202383F31288BFF36F8F134A136843F0A9
:101930000201116013F0010F09D1002384F3118813
:10194000BFF36F8F93B904F01FFF02B010BD0DF10C
:101950000700FFF77FFF9DF807300BB10023EDE78D
:10196000FFF78EFF04F0A6FE0123E7E700210348FE
:1019700004F0B2FEE9E700BF9C050020548D000092
:1019800010B5EFF31184202383F31288BFF36F8F18
:10199000074A136823F00201116013F0010F04D00D
:1019A00084F31188BFF36F8F10BD04F0F2FEF7E7E8
:1019B0009C05002070B50546012806D12C4BD3F8B4
:1019C000503403F00303012B4BD006F0DFFC044638
:1019D00018B9284B1B78002B38D1EFF31186202340
:1019E00083F31288BFF36F8F01241CB9204B0422AC
:1019F000C3F808231E4BD3F84C24D3F84C3403F01F
:101A0000030312F4803F03D0012B25D0012D23D0F6
:101A1000F4B1304604F007FD154BD3F8403413F011
:101A2000FF0FE7D1124BD3F80831002BE2D0104B57
:101A30000022C3F80821D3F808210122C3F840246A
:101A40000D492020C1F8A0011A61D3E70026CCE798
:101A5000012004F0A3FEDFE724B186F31188BFF371
:101A60006F8F70BD024B0422C3F80423F9E700BF57
:101A700000E01050BB0C002000E100E000B585B094
:101A8000CDF800D0CDF804D00023029301230393B6
:101A90006B46074A04F068FE002805DB43F609524E
:101AA0000023684601F070FF05B05DF804FB00BF3D
:101AB000F9670000F8B506460022012140F2051042
:101AC00004F08AFC114800F003FDD8B9074600F085
:101AD0001DFD002403E00123AB601C44E4B2012C93
:101AE0000ED82146304604F097FD05462146304683
:101AF00004F09DFD064904F089FB031EEBDA1F4646
:101B00003846F8BD6FF00407FAE700BFF51800008B
:101B1000089D000010B504460E4B0121D3E8EF2FBD
:101B2000C3E8E01F0028F9D11AB1631E012B0DD9BB
:101B300010BD094804F07BFD084900234B608B6011
:101B4000CB6001238B6004F07EFBEEE72046FFF7BD
:101B500031FFEDE748050020548D000038050020D6
:101B600010B504460A2806D0E1B2064883685B68CF
:101B70009847204610BD034883685B680D2198474D
:101B8000F2E700BFD48D000010B5044C2046FFF7EB
:101B9000C7FD2046FEF75AFE10BD00BF611B0000C6
:101BA00008B5054806F093FB18B1FFF7EDFF0020DC
:101BB00008BD6FF01200FBE7D48D0000036803F04E
:101BC0001F0202605B09012B06D0022B06D00BB16D
:101BD000002070470248704702487047024870472B
:101BE00000A0105000820D5000040550022806D0BD
:101BF000012806D008B90448704700207047034800
:101C000070470348704700BF748D0000B48D00001A
:101C1000948D000038B504464568284604F0D7FE88
:101C200020B91149204604F081FE38BDA86806F0AD
:101C3000CCF80028F5D10021A86806F0C2F880B9D8
:101C400000220A49A86806F0B4F800220121DB202E
:101C500004F0C2FB0022012140F20D1004F0BCFB95
:101C6000DFE76FF00400E0E78F6A0000716A0000B0
:101C700008B5054B054A9362054A1A600022012106
:101C8000C72004F0A9FB08BDD4050020D401002022
:101C900000700C5038B505464468A3699847012187
:101CA000E06905F049F92B4622692146A06A06F051
:101CB0006CFA002804DB0449284605F02BF938BDEE
:101CC0006FF00400FBE700BF4F700000036803F0F3
:101CD0001F0202605B09012B06D0022B06D00BB15C
:101CE000002070470248704702487047024870471A
:101CF00000A0105000820D5000040550F0B583B0D4
:101D000001900C4617461E4601A8FFF7DFFF019918
:101D1000203150F82130094D1D4044EA470444EA7F
:101D200086039DF8202043EA02239DF8242043EAFD
:101D300002432B4340F8213003B0F0BDF0F0FCFF2C
:101D40002DE9F04F85B007468B469246002423E0EC
:101D50004FF0FF3535E0CAF80456012603963146A8
:101D6000B5F1FF3F16D0B1F1FF3F40F04E8157F87B
:101D7000093013F4004F02D0012600220392002202
:101D80000192CDF80080C3F34123324603992846DF
:101D9000FFF7B4FF0134E4B25C4580F03A814FEACA
:101DA000840957F82430C3F3C322C3F30805082A73
:101DB00000F231819C4911F8028040F2FF129542F5
:101DC000C6D01B0E4E2B00F2298101A252F823F03F
:101DD000571D00000D1F00001B1F0000271F0000E3
:101DE000351F0000431F00004F1F00001D20000092
:101DF0001D2000001D2000001D200000691F0000A4
:101E00007D1F00001D2000001D2000001D2000007F
:101E10001D2000001D2000001D2000001D200000CE
:101E20001D2000001D200000911F0000A31F0000C6
:101E3000B51F0000C71F00001D2000001D2000006E
:101E40001D2000001D2000001D2000001D2000009E
:101E50001D2000001D2000001D2000001D2000008E
:101E60001D2000001D2000001D2000001D2000007E
:101E70001D2000001D2000001D2000001D2000006E
:101E80001D2000001D2000001D2000001D2000005E
:101E90001D2000001D2000001D2000001D2000004E
:101EA0001D2000001D2000001D2000001D2000003E
:101EB000D91F00001D2000001D2000001D20000073
:101EC0001D2000001D2000001D2000001D2000001E
:101ED0001D2000001D2000001D2000001D2000000E
:101EE0001D2000001D2000001D2000001D200000FE
:101EF0001D2000001D2000001D2000001D200000EE
:101F00001D2000001D2000005D1F0000CAF80C56B7
:101F1000002603964FF0FF3122E7CAF8105601263B
:101F2000039631461CE7CAF80856002603964FF080
:101F3000FF3115E7CAF80056002601230393314606
:101F40000EE7CAF8045601260396002108E7CAF8EE
:101F50000856002603964FF0FF3101E7CAF81056E5
:101F6000012603963146FBE6CAF80056B8F1000F89
:101F70003BD0002603964FF0FF31F1E6CAF8045635
:101F8000B8F1000F39D0002603964FF0FF31E7E695
:101F9000CAF8605557F80910C1F3004101260396AD
:101FA000DEE6CAF8645557F80910C1F3004101266E
:101FB0000396D5E6CAF8685557F80910C1F30041F1
:101FC00001260396CCE6CAF86C5557F80910C1F300
:101FD000004101260396C3E60421284605F08AF84D
:101FE000012603964FF0FF31BAE64646CDF80C8045
:101FF0004FF0FF314FF00808B2E64646CDF80C80AE
:102000004FF0FF314FF00808AAE6284605F06AF8BD
:10201000ADE6002004E06FF0150001E06FF08500F0
:1020200005B0BDE8F08F00BFCC9D0000F8B50546B7
:102030000E46476806F0AAF920B9154B1B7843B144
:10204000002300E0012353B9284605F007F90446B0
:1020500011E00123F7E784F31188BFF36F8FEFF3EB
:102060001184202383F31288BFF36F8F284605F075
:1020700082F80028EFD07B6A1E700122796A284618
:1020800005F082F884F31188BFF36F8FF8BD00BFAD
:10209000BB0C002038B5044645680121E86805F00E
:1020A00002F9636818686B69C0F8243505F11801F6
:1020B00005F045F8204605F088F800B138BD024922
:1020C000204605F02AF8F9E70F73000038B50E4CEA
:1020D00021686568501A63EB050C400940EACC6042
:1020E0004FEA401C11EB0C0145EBD06521606560A7
:1020F00006490A604B60064B00240025C3E90045F1
:1021000002F090FA38BD00BFF8020020E002002083
:10211000F002002008B500220121E42004F05CF95F
:10212000164AD2F8183723F44033C2F81837002083
:1021300000F0BEFD002820DB1149012000F000FE68
:1021400000281ADB00F08CFD20F01F000D4B1860FA
:1021500059600D4B186059600C4B4FF0FF304FF039
:10216000FF31C3E90001002209490A4B187A00F047
:1021700085FD094B67221A60002008BD00200E5023
:1021800008020020F8020020D8020020E00200200F
:10219000CD200000000200202C06002008B500F031
:1021A0005FFD064A13685268C01A61EB0201044BD6
:1021B00018605960400940EAC16008BDF80200207B
:1021C000F0020020F0B583B00146254B187A254B6C
:1021D0001C685D68244B1A685B689D4208BF944286
:1021E0002BD0CB175B0143EAD16349011F4E326804
:1021F0007668DFF87CC0DCF80070DCF804E012EBF5
:10220000070C46EB0E0E11EB0C0243EB0E031549C7
:102210000A604B60944275EB03011ED2B4EB0C04D0
:1022200065EB0E05C82C75F10005B4BF0121002136
:10223000009100F0C9FD03B0F0BDB1F1806FD0D2C4
:10224000490100D10121074B0C1945F100051C6023
:102250005D60012200F0F0FDEDE70021E8E700BF3E
:1022600000020020E8020020E0020020F802002026
:10227000F0020020074BD3F84023D3F844331C2A44
:1022800001D000207047012B01D0002070470120B1
:10229000704700BF00C0FF00074BD3F84023D3F8BE
:1022A00044331C2A01D000207047012B01D00020AC
:1022B00070470120704700BF00C0FF00044BD3F8F7
:1022C00040331C2B01D0002070470120704700BF15
:1022D00000C0FF00074BD3F84023D3F844331C2A37
:1022E00001D000207047012B01D000207047012051
:1022F000704700BF00C0FF00036813F0020F0DD04D
:10230000036813F0010F0DD0074B0922C3F80C2509
:102310000F22C3F8042501221A60FEE7034B036075
:10232000EF3B0360704700BF00801050F000FA5090
:10233000036813F0020F0DD0036813F0010F0DD0E6
:10234000074B0922C3F80C250F22C3F804250122EC
:102350001A60FEE7034B0360EF3B0360704700BF6A
:1023600000801050F000FA5008B50848FFF7C4FF8D
:102370000748FFF7C1FF0748FFF7DAFF0648FFF7F6
:10238000D7FF0648FFF7B8FF08BD00BF00C50D50D6
:1023900008C50D5010C50D5018C50D5000C70D5083
:1023A00008B5394B0122C3F80028FFF787FF18B1A1
:1023B000364B0122C3F80C24FFF7D6FF344AD2F87B
:1023C0008C3043F44063C2F88C30002309E0314A7A
:1023D00003F1800152F8310002EBC1025268026041
:1023E00001333F2B0DD803F180022A4951F83220E6
:1023F000B2F1FF3F05D003F1800251F83220002AEC
:10240000E5D1214BD3F840341BB91F4BC822C3F888
:102410004024FFF741FF48B11E4BD3F834231E4B35
:102420009A4203D8184B1D4AC3F84026FFF752FFC3
:1024300018B11B4B1B4AC3F8AC27FFF71BFF48B171
:10244000114B3422C3F82426D3F83C2622F4002270
:10245000C3F83C26144BD3F8003613F0010F04D018
:10246000114B6FF00102C3F80026104A0323C2F893
:1024700018350749D1F88C3043F44063C1F88C30EB
:102480000023C2F8A03508BD0000125000300550EE
:1024900000ED00E000C0FF00001D0A1840E0A91E8A
:1024A00000A0085078000A0400E0105000B004506A
:1024B00008B5024B1B68984708BD00BF30060020D6
:1024C00008B5024B1B68984708BD00BF30060020C6
:1024D00008B50B4B1B797BB9094B186001221A71A7
:1024E00000B1084800F02CF928B9054B186800B174
:1024F000054800F031F808BD6FF07700FBE700BF3A
:1025000030060020B1240000C124000008B5034BB0
:102510001B680BB104F073FF08BD00BF300600203C
:1025200010B50C4B0422C3F8082301225A61002283
:10253000C3F80821D3F8083142F21074054BD3F8E0
:102540004C3413F4803F04D0012004F019FF013C07
:10255000F4D110BD00E0105008B5084B1B7953B9F9
:10256000064B186001221A7104F070FF044BC3F887
:102570004004002008BD6FF07700FBE7380600201C
:1025800000E0105000B583B02E4BD3F84C24D3F8A4
:102590004C3403F003038DF8073012F4803F1FD151
:1025A000284BD3F8483413F0010F1ED104F04EFF2E
:1025B0008DF807009DF80720224BC3F84024002225
:1025C000C3F80821D3F8082101221A611E4B1B68A9
:1025D00063B31C4B0422C3F8042303B05DF804FB6F
:1025E0000DF1070004F034FFE4E7164BD3F8503444
:1025F00003F003038DF807300DF1070004F028FF06
:102600000028D7D0104B1B6823B10E4B0422C3F80F
:102610000423E2E70B4BD3F80831002BFAD0094B27
:102620000022C3F80821D3F80831D6E7054BD3F8C8
:102630000831002BFAD0034B0022C3F80821D3F84D
:102640000831CAE700E010503806002008B51C4BDE
:10265000D3F80C0300F00C0007E01A4B1B689847F6
:10266000174BD3F80C0300F00C0040B3B0FA80F025
:10267000C0F11F00012303FA00F283009BB203F5AF
:1026800080739BB2C0B203F1A04303F5871300210E
:1026900019601B68D3B20A4AC2F80833042BDCD194
:1026A000D2F84C14D2F84C2412F0030FD5D1044ABE
:1026B0000121C2F84014C2F804331161D0E708BD0B
:1026C00000E0105038060020044BD3F840331C2B98
:1026D00001D0002070470120704700BF00C0FF00FC
:1026E00010B5154B7122C3F8082301225A6000224D
:1026F000C3F80021D3F80031FFF7E6FF10B10E4B0D
:102700000122DA6042F2107406E0012373B1012065
:1027100004F036FE013C07D0074BD3F80C3413F419
:10272000803FF2D10023F1E7002300E0012313B141
:10273000024B00225A7110BD00E0105040060020EC
:10274000054B1B792BB9044B186001221A7100202C
:1027500070476FF0770070474006002008B5184BAF
:102760000022C3F81021D3F81011C3F81821D3F8B0
:102770001811C3F81421D3F81431FFF7A5FF10B1D5
:102780000F4B01229A600E4B0022C3F80021D3F8B0
:10279000002101221A600B4B1B6823B1084B7122E8
:1027A000C3F8042308BD064BD3F80031002BFAD040
:1027B000034B0022C3F80021D3F80031F2E700BF39
:1027C00000E010504006002008B51E4BD3F80C0363
:1027D00000F0710013E01C4B02225A71194B0022C9
:1027E000C3F81421D3F814212022C3F80423164B74
:1027F0001B689847134BD3F80C0300F07100F8B135
:10280000B0FA80F0C0F11F00012303FA00F2830048
:102810009BB203F580739BB2C0B203F1A04303F5F2
:102820008713002119601B68D3B2064AC2F8083327
:10283000102BD0D0402BDAD1034B00225A71D6E7AF
:1028400008BD00BF00E010504006002030B401F584
:10285000A27150F821500E4C2C4040F8214050F805
:10286000214041F6F07C0CEA021C1B0403F44033C7
:102870004CEA030C9DF808301B0503F480134CEA66
:10288000030C44EA0C0440F8214030BC704700BF00
:102890000FE0ECFF036803F01F0202605B09012BED
:1028A00006D0022B06D00BB10020704702487047BB
:1028B000024870470248704700A0105000820D5037
:1028C0000004055000B583B0019001A8FFF7E2FFB6
:1028D000019A203250F82210044B0B4043F00203BF
:1028E00040F8223003B05DF804FB00BFF0F0FCFFBD
:1028F00030B585B086460D4694460C4B93E80700EC
:1029000004AB03E90700734609E004AA02EB830263
:1029100052F80C2C146A4CF8044B146201330EEB81
:1029200005029A42F1D805B030BD00BFF096000014
:102930004309034AD35C00F01F001844C0B270473B
:102940004C9E0000014B03EB8000704710020020FA
:10295000014B03EBC0007047649E000030B583B0AC
:1029600005460191002400E00134022C18D80E4BDA
:102970001B5D03F0070202A901EBD30313F8043C2B
:10298000D34013F0010FEFD005EB84020121204664
:10299000FFF7AEFF55F82430002BE5D0012000E012
:1029A000002003B030BD00BF5C9E000070B504463F
:1029B0000D461E4604984FF0000C01E00CF1010C8E
:1029C00084450ED25FFA8CF2920002F58071920873
:1029D000012303FA02F21542F0D00023635063583A
:1029E000ECE715F4003F04D00023C4F84431D4F8D8
:1029F0004431064B9C4207D040F20D1003F0E2FC3C
:102A00000EB1C4F8145370BDDB20F7E700A00D50E1
:102A10002DE9F04784B081460F469046002301938C
:102A200002930393516801A8FFF798FF4DE094FAD1
:102A3000A4F4B4FA84F404F01F05264B9B5D45EA28
:102A400043152846FFF774FF083037F810A0CAF383
:102A5000820A01AB03EB8603E00804F007041A5C6A
:102A60000121A14022EA01021A54284604F0E1FDA6
:102A7000034652462946384604F0B2FF284604F081
:102A8000E7FD04AB03EB860353F80C4C002CCED1CE
:102A90000136022E0DD8104B9B5D08F10402D908B7
:102AA00003F00703525C22FA03F313F0010FEFD097
:102AB000E7E700224FF40031484604F01FFDD8F844
:102AC000041001A8FFF74AFF08B10026E1E704B0AF
:102AD000BDE8F087609E00005C9E000010B5D0F855
:102AE000103523F00203C0F8103540F6FF73C0F82C
:102AF000283300220AE0930003F5C07C002440F84C
:102B00000C40DBB28033C4500132D2B20B2AF2D96E
:102B10000123036669B1074B074A1068074AA2FB05
:102B20000020800C00EB4000C0EB401043F001039C
:102B3000984710BD209700000C02002083DE1B4345
:102B4000024BD3F81005C0F34000704700200E5030
:102B500003498B680122824013438B60704700BF9A
:102B600040000020027A0A4BD3F8103523F001030D
:102B70005AB101221343064AC2F810350368C2F85D
:102B8000A4364368C2F8AC3670470022F2E700BFB3
:102B900000200E5070B582B02D4BD3F82C4320E0AE
:102BA0002C4B01F10C0203EBC20553F832206B6889
:102BB0004FEA800C284D55F80C6096B1002645F878
:102BC0000C60244D01EB41064FEA860CAC44DCF866
:102BD0000C6001EB41014FEA810C654429690091C9
:102BE000B04794B394FAA4F0B0FA80F00123834084
:102BF000DD4324EA0304174B1A1892F8541001EB32
:102C0000410C4FEA8C021344DB68B3B1134AD2E89B
:102C1000EF3F03EA0506C2E8EC6FBCF1000FF6D106
:102C2000C34013F0010FBBD0094A00F152031D014C
:102C300002EB03135B685259BAE78000064B1A583F
:102C4000002ACED000221A50CBE702B070BD00BFE0
:102C500000200E504000002000210E50C80000202F
:102C6000054BD3E900014FF0FF3383426FF040433F
:102C70008B41F5D3704700BF40270E5010B40A4C6B
:102C8000231893F8543003EB430C04EB8C0CCCF872
:102C90000C10CCF810208CF8140001238340034A58
:102CA000C2F8243310BC70474000002000200E50B2
:102CB00030B585B01F4B1C78002C38D105461E4A14
:102CC00001AB07CA83E807001C49D1F8102522F0A0
:102CD0000202C1F810251846FFF744FF672005F0EF
:102CE000B9F8052810D06FF08B001EE0204605F0E3
:102CF000BCF8104B04EB440103EB8101087503445D
:102D000083F854400134E4B2042CEFD90B4C002377
:102D10002A466721204605F0BDF801212046FFF72D
:102D2000DDFE044B01221A70002005B030BD6FF0AB
:102D30007700FAE740000020FC96000000200E50CB
:102D400030B583B004460D461B4B5B6803F00103AE
:102D5000019301A804F018FB002825DB164B187519
:102D6000002028705A6822F001025A60FFF7F0FE36
:102D7000FFF7E6FED0B92146104805F04AF8104B9F
:102D80001B68104AA2FB03239B0C03EB431300E0D8
:102D9000013B3BB1094AD2F84017D2F8442712F060
:102DA000804FF5D12BB1002003B030BD6FF077001C
:102DB000FAE76FF07300F7E74000002000200E50A4
:102DC0000C02002083DE1B4370B515461C469DF89F
:102DD0001010164A131893F854300C3302EBC30644
:102DE00042F833507460B1B1114A00F15203190135
:102DF00002EB03135550C4F313025A6080000D4ECA
:102E00000644336883B1FFF72BFFA842A1410BD2E0
:102E10000023336008E0064B5230020103EB001040
:102E20009D50C4F31304446070BD00BF40000020F7
:102E300000200E5000210E5070B40F4C231893F850
:102E400054300C3304EBC30C54F83350DCF80460FA
:102E50004D1946F1000644F83350CCF8046021F0D7
:102E6000004141EAC271000100F1A04000F562207A
:102E7000C0F8281570BC70474000002082B08DF863
:102E80000400C9B28DF8051040EA0120054BC3F8D3
:102E90000005044BD3F8003413F0010FF9D002B051
:102EA000704700BF00B00450036803F01F020260C7
:102EB0005B09012B06D0022B06D00BB10020704716
:102EC00002487047024870470248704700A01050FF
:102ED00000820D5000040550F0B583B001900C46FF
:102EE00017461E4601A8FFF7DFFF0199203150F871
:102EF0002130094D1D4044EA470444EA86039DF809
:102F0000202043EA02239DF8242043EA02432B4376
:102F100040F8213003B0F0BDF0F0FCFF00B583B005
:102F2000019001A8FFF7C0FF019A203250F822104B
:102F3000044B0B4043F0020340F8223003B05DF82D
:102F400004FB00BFF0F0FCFF2DE9F04104460D4604
:102F500016461F46002380F82330536833B1D368E8
:102F600003F06043B3F1005F40F00E813378023B21
:102F7000DBB2012B40D917F0030F40F00881854BDD
:102F8000C5F8083394F82430002B3ED117F0140F05
:102F90000CBF0123002384F82430337884F82030D8
:102FA000737884F82130F368E360736823613369D0
:102FB0006361B368A361C7F3001384F82530E76148
:102FC0007378C5F888350023C5F83831D5F838212D
:102FD000C5F82831D5F82821C5F81431D5F81421C1
:102FE000C5F80431D5F804313378032B00F2A480FE
:102FF000DFE803F075915E11336903F06043B3F1CC
:10300000005FB8D06FF00C084FE0A368C5F8043338
:103010006FF00F0849E04FF48073C5F80032E268A2
:103020002369C5F83C27C5F8403701232B650022EA
:103030004FF00061284604F051FF0028F7D1626983
:10304000A369C5F83C27C5F840374FF48063A360F7
:103050004FF0000817F0080F11D13378032B0ED072
:10306000012B6CD02368002B73D00021284604F07C
:10307000B5FF73681BB923680BB101236B6023682C
:10308000002B69D017F0040F01D00023A36017F0C4
:10309000400F03D1A36843F00203A360A36843F089
:1030A0002003A360A368C5F804334046BDE8F0815F
:1030B000E2682369C5F83C27C5F840376269A3690F
:1030C000C5F80427C5F808374FF48453C5F8003213
:1030D00001232B610223A3604FF00008BAE7E268E6
:1030E0002369C5F83C27C5F8403717F0200F0BD0EF
:1030F0004FF48073C5F800324FF48063A36001235E
:103100002B614FF00008A5E74FF40073C5F80032BB
:103110000223A360F3E7E2682369C5F80427C5F832
:1031200008374FF48053C5F8003201232B61022386
:10313000A3604FF000088DE76FF015088AE7236859
:1031400023B10021284604F02DFF92E704F10C0181
:10315000F8E704F10C0189E7D5F8C404C5F8C40404
:10316000002384F8243018B104F07DFF80469CE7EA
:1031700017F0400F99D12146284604F089FF002816
:1031800093D16FF08B0890E76FF00C088DE76FF02C
:1031900085088AE72264F81F0021C1600268094B94
:1031A000C2F80833D2F8003223F0FF5323F4BC53A3
:1031B000C2F80032C2F80015012380F8263080F8EA
:1031C000281070472264F81F2DE9F04186B00446AC
:1031D000804658F8045B90F82430012B6ED000F143
:1031E00018073A460221284604F078FE06463A4679
:1031F0002021284604F072FE00287DD0002E60D0E9
:10320000236A13F0400F04D194F82730002B00F00C
:10321000A680236A13F0040F33D10023C5F8383198
:10322000D5F83821C5F83431D5F8343194F829303F
:1032300013B194F82730A3B10023C5F80032E3603E
:10324000604BC5F80833C5F30F32C5F3083302F0FD
:103250001F025B09012101FA02F260335A4941F869
:10326000232094F824308DF8043094F825308DF81C
:1032700005302369049363690293A3690593E369A5
:103280000393D5F8C434C5F8C43413F0020F7FD0CB
:1032900001238DF8003094F829300BB984F82830D8
:1032A000236A13F0040F02D094F827301BB163682F
:1032B000A1686846984706B0BDE8F08100F11007A4
:1032C0008FE7E368C5F808330223E360E368C5F8D5
:1032D000043300224FF48041284604F0FFFD20B162
:1032E000D5F8003213F4007F02D101232B616B600B
:1032F000012384F82730DEE7002E81D13A464FF4CF
:103300008061284604F0EAFD94F8243083BB94F8E9
:1033100029309BB9C5F80032E3602A4BC5F8083361
:10332000C5F30F32C5F3083302F01F025B09012118
:1033300001FA02F26033244941F8232094F8243042
:103340008DF8043094F825308DF805302369049306
:1033500063690293A3690593E369039391E7414687
:10336000284604F095FE80F0010084F8270050E71D
:103370004FF40073C5F800322223E360114BC5F807
:103380000833E368C5F8043301232B652B6192E70A
:1033900013F0040F03D002238DF800307BE713F005
:1033A000010F03D003238DF8003074E794F8273021
:1033B0001BB104238DF800306DE700238DF8003039
:1033C00069E700BF2264F81F00E100E0036803F032
:1033D0001F0202605B09012B06D0022B06D00BB145
:1033E0000020704702487047024870470248704703
:1033F00000A0105000820D5000040550F0B583B0BD
:1034000005460E4604F01CFF304604F019FF0195F6
:1034100001A8FFF7DBFF019A203250F82230214F3C
:103420003B4040F60D04234340F82230019601A8AA
:10343000FFF7CCFF019A203250F822303B40234363
:1034400040F82230042003F09BFF0024082C12D8FF
:10345000304604F00FFF70B9284604F0FEFE042049
:1034600003F08EFF284604F0EBFE042003F088FFF3
:103470000134E4B2EAE7304604F0EFFE042003F042
:103480007FFF304604F0DCFE042003F079FF304675
:1034900004F0F0FE10B1002003B0F0BD6FF08B001F
:1034A000FAE700BFF0F0FCFF38B5EFF311852023F9
:1034B00083F31288BFF36F8F054B9C6804F01FFFE6
:1034C00085F31188BFF36F8F2046FDF72FFE38BDBF
:1034D00048060020F0B587B000EBC0060F4D05EBA5
:1034E000061600EB80000E4B03EB800300220592D2
:1034F000012104910F210391029201920093094B43
:103500004FF4A072084901EB8011304600F064FAD4
:10351000737B23F00403737307B0F0BD0003002036
:103520004806002005830000C014002038B5054679
:103530000B4B53F8204002E02368984708346B1C7B
:10354000074A52F82330A34209D960680028F3D013
:10355000037F13F0010FF1D104F0A0FEEEE738BDB8
:103560007C9E000008B553EA020102D100F02CFE57
:1035700008BD0249183000F0BBFFF9E729850000BB
:1035800010B586B0184C14E0636A0593236A04935F
:10359000E3690393A3690293636901932369009329
:1035A000E368A2686168206800F016FA23685C6529
:1035B00030340E4B9C42E7D300F0E0FC0A4C00E0B4
:1035C00030340A4B9C420BD2A26AE36AB3F1FF3F4C
:1035D00008BFB2F1FF3FF3D02068FFF7C3FFEFE76A
:1035E00000F0E4FC06B010BD8C9600008C96000044
:1035F00008B50A4B01221A700320FFF797FFFDF769
:1036000017FA0420FFF792FFFFF7BAFFFDF79EF8C5
:10361000034A137B23F00103137308BDBB0C002086
:103620009003002008B50146014A0248FDF764FEF8
:10363000F13500009003002010B50446FFF74AFF63
:1036400004EBC4030A4901EB03110A4A04EB8403A7
:1036500002EB8303D9601C74074B03EBC42303F50F
:10366000006304EB840402EB8402536010BD00BFCE
:103670000003002048060020C00C002070B586B072
:1036800000F0CCFC104D114B5D61114B05930123F3
:103690000493002403940294019400940D4B4FF47E
:1036A00080620D49284600F097F906466B7B23F0AF
:1036B00004036B73284604F0E2FE2046FFF7BCFFCC
:1036C000304606B070BD00BF9003002048060020C1
:1036D000749E0000F13500000016002008B500209F
:1036E000FFF724FF184B03F5006282F3088883F389
:1036F0000A88164CE02384F822300023E3772376EF
:103700006376A37684F82030626A42F4E022626233
:1037100084F82330FDF782FCFDF70EFE4FF0FF33F7
:10372000A362E362FDF7B4FFFDF736FE084800F040
:1037300085F90120FFF7FAFE0220FFF7F7FEFFF7F9
:103740009DFFFFF76FFF00BFC00C002000ED00E001
:10375000200400202DE9F04182B00446EFF31187E8
:10376000202181F31288BFF36F8FC16899B90029B6
:1037700050D1364B9B6893F90E3023610131E160E3
:10378000324B9B68A36087F31188BFF36F8F0020D3
:1037900002B0BDE8F08116461D4682682B4B9B683F
:1037A0009A42E4D055EA060136D092F90E8041469D
:1037B00093F90E0004F0B3FD804534DC4FF00008AF
:1037C0000096019522463946214800F0E9FA002882
:1037D000DED0EFF31185202383F31288BFF36F8FC0
:1037E000A36843B323689C4223D013B3216993F9A0
:1037F0000E0004F094FD0146204604F09BFDE8B95C
:10380000B8F1000F1AD185F31188BFF36F8F6FF0F5
:103810000A00BDE72369B0E787F31188BFF36F8F14
:103820006FF00F00B4E70146204604F083FD8046A8
:10383000C6E72169E0E7B8F1000FE4D02946044863
:1038400000F070FB6FF00A00A2E700BF48060020FE
:1038500068060020F8B58368002B47D00446264A46
:103860009268934245D1C368012B04D9013BC360E0
:1038700000252846F8BDEFF31186202383F3128834
:10388000BFF36F8F016904F055FD2768BC420CD06F
:103890003D1E18BF012557B9A760CDB90023E360CD
:1038A00086F31188BFF36F8FE3E70027F0E77A68AC
:1038B0003B6813605A6000233B607B607A7B22F098
:1038C00002027A73BB6007F1180004F0B0FEE3E770
:1038D00097F90E3023610025C7F88850384604F068
:1038E000CEFD3146054800F01DFBC2E76FF015051F
:1038F000BFE74FF0FF35BCE7480600206806002010
:10390000F8B50446EFF31187202383F31288BFF341
:103910006F8F0568A84212D02E1E18BF012685B9E8
:1039200006BBA368E268934224D001221344A3603B
:1039300000230BBB87F31188BFF36F8FF8BD002501
:10394000EAE76A682B6813605A6000232B606B609B
:103950006A7B22F002026A73AB6005F1180004F082
:1039600066FEDDE70023C5F88830284604F087FDB1
:103970000123DEE70022D9E73946024800F0D2FAF7
:10398000DCE700BF6806002010B582B0EFF31181BC
:10399000202484F31288BFF36F8F846844B1013C04
:1039A000846081F31188BFF36F8F002002B010BDD7
:1039B00053EA020406D0009201930246054800F043
:1039C000EFF9F3E781F31188BFF36F8F6FF00F000A
:1039D000ECE700BF68060020F0B585B004460E464F
:1039E00015461F4600F158038365C3650E9B0422EC
:1039F0000D9904F0D1FC2A463146204604F0B4FC6F
:103A000005460C9B02930B9B01930A9B00933B463C
:103A1000024631462046FDF74DFC0023636584F8DD
:103A20006C30054B9B6823B1DB6FE367284605B01C
:103A3000F0BDE367FAE700BF4806002001234373A7
:103A40000373002303674367C367014B98607047A4
:103A5000480600200A4A9368C3F884006FF00A0100
:103A6000C3F8881007494B6843F080534B6000232C
:103A700083F31188BFF36F8F9368D3F88800704782
:103A80004806002000ED00E0437B90F90D20002A5D
:103A900051DB13F01F0F4ED110B563F07F0343735A
:103AA000254A52F8183F93420ED100230CE05A6881
:103AB00042600360106058601EE01A461E49C969E2
:103AC0008A420FD01B687BB173B190F90E1093F945
:103AD0000E209142F1D0521A002AE8DC1A46002B3F
:103AE000ECD1F0E70023EEE7134BDA6903F118019C
:103AF000016042601060D8610F4B53F8184F9C4230
:103B00000ED06CB10C4B9B685A7B12F01F0F0AD180
:103B1000DA897F2A07D9A2692AB9074A536109E0DD
:103B2000054BDC68EEE7A34202D0204600F05EFCC5
:103B3000014B5C6110BD70474806002010B5437B07
:103B400090F90D20002A14DB154B9A6853F8184F92
:103B50009C4219D0C4B1824219D0537B13F01F0F7D
:103B600015D1D3897F2B12D9A36983B90C4B5A6124
:103B700014E003F07F0343734268036813605A60E4
:103B8000002303604360DFE7054BDC68E3E7A24204
:103B900002D0204600F02AFC014B5C6110BD00BF42
:103BA000480600202DE9F84305460C46404B9E6828
:103BB000737B13F0600F28D013F0200F2AD0082752
:103BC0001F4222D13B43737313F0800F24D1082F7F
:103BD0002DD04FF00009364B53F8188F98454BD035
:103BE000B8F1000F48D0324B9B68434502D04046A5
:103BF00000F0FCFB2E4BC3F81480102F05D030468C
:103C000002F0FAFBB9F1000F3AD184F31188BFF347
:103C10006F8F46E01027D3E703F07F03737372685A
:103C2000336813605A60002333607360CFE7B36872
:103C30005BB17268336813605A600023336073604D
:103C4000727B22F002027273B360304604F0E3FB31
:103C500006F1580004F0E4FB154B9B689E4202D02D
:103C60004FF00009B7E7EFF3058313B94FF00009F0
:103C7000B1E74FF00109AEE70D4BD3F80C80B2E786
:103C80000C48FFF7DBFEC0E7EFF31184202383F33A
:103C90001288BFF36F8F04F040FB84F31188BFF3E9
:103CA0006F8F6B7B13F0600FEED1BDE8F88300BF20
:103CB0004806002020040020B3F1FF3F08BFB2F106
:103CC000FF3F00D1704708B50249183000F010FCE2
:103CD00008BD00BF2985000010B5437B90F90D2079
:103CE000002A0ADB437B63F07F0343732B4A52F8BD
:103CF000183F934219D1002317E003F07F03437369
:103D00004268036813605A60002303604360E9E778
:103D10005A6842600360106058601EE01A461F49EE
:103D2000C9698A420FD01B687BB173B190F90E103C
:103D300093F90E209142F1D0521A002AE8DC1A467B
:103D4000002BECD1F0E70023EEE7144BDA6903F126
:103D50001801016042601060D861104B9A6853F8F6
:103D6000184F9C420ED06CB182420ED0537B13F0A0
:103D70001F0F0AD1D3897F2B07D9A3692BB9074B12
:103D80005A6109E0054BDC68EEE7A24202D020460A
:103D900000F02CFB014B5C6110BD00BF4806002009
:103DA00010B50C4611460A4882680A4B1A60EFF3B8
:103DB0001183202383F31288BFF36F8FDDE9022381
:103DC000806804F050FB2046FFF744FE10BD00BFA2
:103DD00048060020680600202DE9F04104460E4602
:103DE0000023EFF31185202282F31288BFF36F8F37
:103DF0001F4650E003F07F0363736268236813601B
:103E00005A6000232360636071B2A173637B63F027
:103E10007F036373424A52F8183F93420ED1002346
:103E20000CE05A686260236014605C601CE01A4613
:103E30003B48C06982420DD01B686BB163B193F9F6
:103E40000E209142F3D0521A002AEADC1A46002BC7
:103E5000EED1F2E70023F0E7314BDA6903F1180104
:103E6000216062601460DC612D4B53F8188F984517
:103E700020D0B8F1000F1DD0294B9B68984502D087
:103E8000404600F0B3FA264BC3F8148085F311883E
:103E9000BFF36F8F0123002B3FD1637B03F01F0221
:103EA000002A0CBF01270027A4D013F0020F05D170
:103EB000A673EBE71A4BD3F80C80DDE7A1686268C4
:103EC000236813605A6000232360636070B2A0739C
:103ED0000B6899420DD100230BE05A6862602360A1
:103EE00014605C60D2E79C464A6894450DD01B681C
:103EF0006BB163B193F90E209042F4D0121A002AEC
:103F0000EBDC9C46002BEFD1F2E70023F0E74B6897
:103F1000216063601C604C60B8E73846BDE8F08102
:103F20004806002008B50B4659B9EFF3058242B99F
:103F3000064A50699268904203D00846FFF78AFD0E
:103F400003E083F31188BFF36F8F08BD480600209C
:103F500008B5034650B9EFF305823AB9064A5169EC
:103F60009268914202D0FFF775FD03E083F3118858
:103F7000BFF36F8F08BD00BF480600200023EFF39A
:103F80001181202282F31288BFF36F8F09E0064B64
:103F90009A68D37B013BD37381F31188BFF36F8F92
:103FA0000123002BF3D070474806002038B50023CA
:103FB000EFF31185202282F31288BFF36F8F0EE09A
:103FC000154BDC6817E0A24202D0204600F00EFA42
:103FD000114B5C6185F31188BFF36F8F0123BBB96F
:103FE0000D4B9A68D17B0131D17353F8184F9C4225
:103FF000E6D0002CE4D0537B13F01F0FE3D1D3891C
:104000007F2BE0D9A369002BDDD1034B5A61E1E797
:1040100004F090FA38BD00BF4806002008B50248F9
:1040200004F093FA08BD00BF5C06002038B5EFF33A
:104030001184202383F31288BFF36F8F224B9A6879
:10404000DB699A4205D01368516812680A605160B2
:1040500006E00023F8E71C4AD269934212D01B689D
:1040600093B1194A906890F90E1093F90E2091427D
:10407000F1D0521A002AEEDD5A68426003601060E7
:1040800058600AE00023EBE70F4B9A68D96903F107
:104090001800106051600A60DA610B4B53F8185F2A
:1040A0009D420DD065B1084B9B689D4202D02846C9
:1040B00000F09CF9044B5D612046FFF7CBFC38BD56
:1040C000014BDD68EFE700BF48060020F8B551EA74
:1040D000000328D005460C46EFF31187202383F315
:1040E0001288BFF36F8F154EB068154B1860FFF73D
:1040F00025FDB0682A4623461249183000F0F8F929
:104100000446B268537B43F0040353733846FFF709
:10411000A1FCB3689A6ADB6AB3F1004F08BF002ABA
:1041200005D00020F8BDFFF781FF0020FAE704F07A
:10413000ADFA201A0028F5DC0020F3E7480600203D
:10414000680600202985000038B504460D46FFF7B3
:10415000BDFF02462046B5F1FF3F08BFB4F1FF3F67
:104160002CD0D1174FEA411C4CEAD26C53019B1A58
:104170006CEB010C4FEA8C0C4CEA937C9B0098187A
:1041800041EB0C01C90041EA5071C00047F6112310
:10419000C01841F1000147F61223984271F1000363
:1041A0000BD3084B834243F608538B4107D347F6A2
:1041B00012220023FCF762F900E0002038BD6FF006
:1041C0000040FBE7ED85FFFF38B5EFF311852023B5
:1041D00083F31288BFF36F8F437B13F0040F04D176
:1041E00085F31188BFF36F8F38BD0446183004F093
:1041F0001EFA637B23F0040363732046FFF744FC3D
:1042000029460248FFF78EFEEEE700BF6806002051
:10421000014B9868704700BF480600202DE9F8431D
:10422000037B03F00107EFF31186202383F3128849
:10423000BFF36F8F457B15F0080F1AD10446B146C6
:1042400000F1580804F0B3F810B345F02005657389
:10425000EFF305839BB131462046FFF7A3FC67B11E
:10426000002383F31188BFF36F8F0423184602DF06
:1042700003E086F31188BFF36F8FBDE8F8834146F2
:104280003D4B986804F095F83046FFF7E3FBE6E70E
:1042900045F00803637313F0800F33D1A3685BB15B
:1042A0006268236813605A60002323606360627B46
:1042B00022F002026273A36004F1180004F0B7F95F
:1042C000404604F0ADF82C4B9A68944227D0002663
:1042D000294B53F8185F9D4228D03DB3AA4202D023
:1042E000284600F083F8244B5D61204602F084F8F4
:1042F000FEB9214B9B689C421FD089F31188BFF304
:104300006F8FACE705F07F0545F0080565736268BF
:10431000236813605A60002323606360BEE7EFF3F5
:1043200005830BB90026D3E70126D1E7124BDD68E0
:10433000D4E71248FFF782FBDBE7EFF30583002B9E
:10434000DBD1237B13F0010F12D089F31188BFF367
:104350006F8F002383F31188BFF36F8F04231846F8
:1043600002DFEFF31189202383F31288BFF36F8FED
:104370004846FFF76FFB72E7480600202004002044
:10438000044BC01AC010044B03FB00F0034B012286
:104390001A547047B0040020ABAAAAAA6C060020E9
:1043A000C3897F2B11D80E4B1B687BB190F90E206F
:1043B0000C4B1B689A420CDB437B13F01F0F0AD196
:1043C000094B984209D0012300E0002303F00100CB
:1043D00070470023FAE70023F8E70023F6E700BF61
:1043E00018020020700600200003002070B505466A
:1043F0000D4B1E7C06EB46030C4C04EBC30420461D
:1044000004F015F90A4B00229A552846FFF7C8FF19
:1044100000B970BD074B1A68013AD3170649204608
:1044200000F066F8F5E700BF48060020B004002061
:104430006C060020180200208143000038B5EFF31D
:104440001185202383F31288BFF36F8F144B9C6870
:10445000144B1B68A34217D0124B00221A60104B5A
:104460001B7C114AD35C53B12046FFF799FF30B152
:10447000637B13F01F0F0FD02046FFF7B7FF85F3C4
:104480001188BFF36F8F38BD2046FFF7AFFF85F36C
:104490001188BFF36F8FF6E72046FFF71DFCEBE7AF
:1044A00048060020680600206C060020034B1868B0
:1044B000984200D070470020FCE700BF1C0200209B
:1044C00030B1044A5268904201D000687047002021
:1044D000704700BF1C02002008B5044B1B680BB1DD
:1044E000002008BDFDF75AFEFBE700BF7406002060
:1044F0002DE9F04F83B0B3F1FF3F08BFB2F1FF3FAA
:104500000ED0044691461F4681600023EFF3118AC6
:10451000202282F31288BFF36F8F1D46019335E08E
:10452000002501952846019903B0BDE8F08FFFF7FB
:10453000D3FF8046013547F10006451946EBE0768A
:1045400025616661344A13685268ED1846EB020330
:1045500001934FF0010B38E0C91A66EB02020161CA
:1045600042614368636020601C60446005E02B4B3F
:104570005A682360626014605C60FFF797FF8442B2
:1045800037D08AF31188BFF36F8F0123002BC9D175
:104590004D460197002FCADA1F4B19685B686918EE
:1045A00043EB07036FF00102521A4FF0FF3161EB4A
:1045B000030310461946012A73F1000301DA0120B2
:1045C0000021206161614FF0000BFFF76FFF0028B1
:1045D000CDD001694669236962698B4272EB060E90
:1045E000BADB5B1A62EB060223616261FFF768FFC8
:1045F000EDE70B4B1B68002BC3D1BBF1000F06D0BE
:10460000404603F0F9FF0021FDF7DCFDB9E7FFF7B5
:1046100063FF8046F4E700BFC80400201C020020AE
:104620007406002070B5EFF31186202383F31288FF
:10463000BFF36F8F2A4B1860FFF738FF044623E063
:10464000284A136851685B1941EBE57113605160AA
:1046500000220023C4E90423204603F0B6FF86F3BA
:104660001188BFF36F8FA36820469847EFF3118638
:10467000202383F31288BFF36F8F194A13685B1BE3
:104680001360FFF713FF04463CB125696169144BC1
:104690001A68D317AA428B41D2DA44B123696269FE
:1046A0000F4909685B1A62EBE172236162610D4A8E
:1046B0000B4D2868136851681B1841EBE0711360BB
:1046C000516000242C60204603F096FF2146FDF740
:1046D00079FD86F31188BFF36F8FFFF7AFFE70BDD2
:1046E00074060020C804002010B50022EFF31184E6
:1046F000202383F31288BFF36F8F134611460CE01B
:10470000FFF7EAFE074A13685168C31841EBE071EE
:1047100084F31188BFF36F8F0122002AF0D018466E
:1047200010BD00BFC804002070B5104D104C2368A8
:10473000284698470F4B5E780F4B1B6828469847D2
:1047400023680E489847022E07D00024E4B20A4B93
:104750001B680A489847204670BD064B1B78072BFC
:1047600001D00024F2E70124F0E700BFA8020020F6
:104770004802002078060020440200209402002015
:1047800010B5244B1B6824489847244B1B7813F022
:10479000040F03D023F00403204A13701F4B1B782F
:1047A00013F0020F22D11E4B1B681B489847194B70
:1047B0001B681C489847194B5B78FBB9174C0023C2
:1047C00063700421601800F00FF9154B1B68154841
:1047D0009847104B1B6810489847237813F0010F37
:1047E00010D10F4B1B680C48984710BD00F0D8F84B
:1047F0000A4A137823F002031370D4E70A4803F03F
:1048000080FFDBE703F07AFF237823F001032370B6
:10481000E7E700BF4802002094020020780600204D
:1048200044020020A80200207C06002038B5FFF7D3
:104830007BFF002840F09E804F4B1B684F489847F5
:104840000446002840F081804D4B1B7813F0010F87
:1048500009D04C4B1B684948984768B1002C76D169
:104860006FF08F0473E003F045FF0446444A137869
:1048700043F001031370ECE7002C68D13E4B1B683A
:104880003E489847002866D13D4B1B7813F0020F35
:1048900009D03C4B1B683948984768B1002C56D169
:1048A0006FF08F0453E000F073F80446344A137835
:1048B00043F002031370ECE7002C48D12E4B1B6829
:1048C0002E489847002849D12D4B1B7803F001054D
:1048D0002C4B1B6829489847002842D1264B1B685F
:1048E0002948984700283FD1254B5B7803B945B943
:1048F000244B1B682448984760B144BB6FF08F0479
:1049000025E0224D284603F0FAFE0446022305F86E
:10491000033CEDE7DCB9184B1B681848984730BBDF
:10492000174B1B7813F0040F04D143F00403144910
:104930000B700446134B1B681048984718B134B9E4
:104940006FF08F0403E024B101E06FF08F04FFF7F4
:1049500017FF204638BD6FF08F04F8E76FF08F0423
:10496000F5E76FF08F04F2E76FF08F04EFE76FF079
:104970008F04ECE70024ECE74802002094020020BA
:104980007806002044020020A80200207C060020B7
:10499000024B012283F8802500207047800600200A
:1049A00038B500259DB10B4B002283F8802538BD1A
:1049B0002C23084803FB040001230362032303772D
:1049C00003F073FE01341F2CF2D90135EAE72C46BF
:1049D000F9E700BF8006002008B5024B1B68984726
:1049E00008BD00BF2402002039B110B504460A46B4
:1049F000024B1B680021984710BD70472802002019
:104A000008B5482001F0E3FC024B0722C3F8082355
:104A100008BD00BF0080045008B50C4B186804F0B6
:104A200026F80B4A1368591C116023B1074B18680C
:104A300004F025F808BD074AD2F8003443F0070314
:104A4000C2F80034482001F0BDFCEFE7300200203E
:104A5000040C00200080045008B5154B186804F0C1
:104A600006F8144A1368013B136023B1104B186811
:104A700004F005F808BDFFF7C3FF0F4BD3F800247F
:104A800022F00702C3F800240022C3F80021D3F863
:104A90000011C3F80421D3F80411C3F80821D3F896
:104AA0000831064B4FF48072C3F88821DEE700BF5F
:104AB00030020020040C00200080045000E100E0DF
:104AC00010B5124B1A68124B9A421BD0FFF7A4FF85
:104AD00000F044FE00F07EFE68B900F013FC0446CE
:104AE00068B903F0F0FE0446FFF7B6FF5CB9074B68
:104AF000074A1A6007E000F00DF80446F4E7FFF7F4
:104B0000ABFF00E00024204610BD00BF2C020020B7
:104B1000117365000A2846DC10F1550F35DB00F1F2
:104B200055035F2B3CD8DFE803F0383B3B3B3B3B76
:104B30003B3B3B3B3B3B603B3B3B3B3B3B3B636053
:104B40003B3B3B3B3B3B3B3B3B3B3B3B3B3B3B3BB5
:104B50003B3B3B3B3B3B3B3B3B3B3B3B3B3B69664C
:104B60003B3B3B3B3B3B3B3B3B3B3B3B3B3B3B6C64
:104B70003B3B3B3B3B3B3B3B3B3B3B3B7E663B83CF
:104B80003B3B3B3B3B3B6C3B3B6C6FF086007047D9
:104B9000002070476FF0860070476FF093007047F9
:104BA0006FF0860070476D2840DC64281ADB64389B
:104BB0000928EFD801A353F820F000BF214C0000D2
:104BC000954B0000954B0000914B0000094C0000F4
:104BD0001B4C0000154C0000954B0000954B00004D
:104BE0000F4C00006FF0860070476FF08400704734
:104BF0006FF0890070476FF0920070476FF0880087
:104C000070476FF0940070476FF0850070476FF049
:104C10008C0070476FF0930070476FF0860070470C
:104C20006FF0980070476FF0850070476FF0860056
:104C3000704700BFF0B59FB007460DF12F0323F07A
:104C40001F0500241794189419941A941B941C940B
:104C50001D944FF41053ADF85C304FF48073ADF8F1
:104C60005E30039303A803F08BFD039B1993264644
:104C700008E010361B4A136B516B013341F1000100
:104C8000136351632F2E13D8174C01221021204695
:104C900003F056FD10230193AA1900922246202109
:104CA000A4F1200000F07CFB04460028E1D016E0CF
:104CB00027B130223946284603F02FFDDFF824C003
:104CC00066462F460FCF0FC697E80F0086E80F0005
:104CD0000CF1200605F120030FCB86E80F002046DB
:104CE0001FB0F0BDD0040020F004002010B58CB03F
:104CF0003021684603F053FD98B96846FFF79AFFE4
:104D0000044610B120460CB010BD302300221946D5
:104D1000684603F01EFD044B00200021C3E90C018E
:104D2000F0E76FF09204EDE7D00400201A4B9A6B85
:104D30001A4B9A422ED010B58CB0194B186803F05C
:104D400096FE402300221946134803F002FD30214D
:104D5000684603F024FD044640B1114B186803F087
:104D60008EFE2046FFF7D6FE0CB010BD6846FFF75A
:104D700061FF08B10E24F0E730230022194668468F
:104D800003F0E7FC044B01200021C3E90C01034AB6
:104D90009A63E2E700207047D0040020B4A5B4A5D0
:104DA000340200202DE9F04196B004460E469046AC
:104DB0000DF12F0727F01F0702F10F052D0922B172
:104DC00000297DD0B2F5803F7DD8404B186803F0B4
:104DD0004EFE3F4A136B526B134327D03C4B1A6B6A
:104DE0005B6BAD1843F100034FF0FF32AA424FF660
:104DF000FF729A4103D2FFF779FF044608BB0023F4
:104E00000F931093119312931393149315934FF4DC
:104E10001053ADF83C304FF48073ADF83E3003933F
:104E200003A803F0ADFC039B11931FE02046FFF79E
:104E30007DFF04460028D1D0244B186803F01FFEE4
:104E40003AE0224B186803F01AFE35E03B5D33551B
:104E50000134AC42FAD3A8EB05082E441C4A136B6C
:104E6000516B013341F1000113635163B8F1000F3D
:104E70001AD04546102D28BF1025164C01221021AE
:104E8000204603F05DFC1023019300972246202169
:104E9000A4F1200000F084FA04460028D9D00B4B7E
:104EA000186803F0ECFD07E00020FFF7C3FE04469E
:104EB000064B186803F0E3FD204616B0BDE8F0810C
:104EC0006FF08604F8E76FF08604F5E734020020FF
:104ED000D0040020F0040020074B0022C3F810216A
:104EE000C3F80C21C3F80021C3F80421C3F808213A
:104EF000C3F81421704700BF0050045038B5054670
:104F00000C46FFF7E9FF01232B60236843B9104BE0
:104F1000D3F80C3123B90E4BD3F80831002BF4D061
:104F2000236853B90B4B9C420CD0A3F58473D3F880
:104F3000083153B94FF0FF3400E00024FFF7CCFFF5
:104F4000204638BD4FF0FF34F8E76FF00204F5E774
:104F5000005004500851045038B5A1B104460D4624
:104F600000210120FDF78AFF0848C0F80045C0F87D
:104F700004550749FFF7C2FF044600210846FDF724
:104F80007DFF204638BD6FF00104FAE70050045061
:104F90000051045008B5044BC3F800050349044808
:104FA000FFF7ACFF08BD00BF00500450045104508F
:104FB0000450045010B5044600210120FDF75EFFA7
:104FC000064BC3F8004506490648FFF797FF04461D
:104FD00000210846FDF752FF204610BD0050045046
:104FE000085104500850045071B110B50C46084BDC
:104FF000C3F8000507490848FFF780FF18B9044BBC
:10500000D3F80835236010BD6FF00100704700BF72
:1050100000500450105104500C50045000230B60F9
:105020004369C3F301330A7863F305120A70D3B2FC
:1050300013F0300308D1826812F0010F40F08F8026
:1050400012F0020F40F08E80102B07D0037DF82B5A
:1050500040F08B8010B500239E460CE04B88022266
:1050600062F3C8134B808B78052262F306138B70B2
:10507000002070470133062B12D88268424C54F846
:1050800023401442F6D0CA784FF0010C0CFA03FC0E
:105090004CEA520C6CF34702CA704EEA040EE9E780
:1050A000836833EA0E0363D14388FF2B3DD00CD8CD
:1050B000802B16D0C02B05D18B78022262F3061309
:1050C0008B7013E06FF085000AE0B3F5807F05D1A7
:1050D0008B78042262F306138B7007E06FF0850073
:1050E00010BD8B78012262F306138B704369C3F302
:1050F00001330A7863F305120A70D3B213F0300F4C
:1051000006D1836813F0010F35D113F0020F35D1AA
:105110000379022B1DD011D8012B0CD14B88012211
:1051200062F3C8134B800020DAE78B78032262F326
:1051300006138B70DAE76FF08600D1E7032B01D0FE
:10514000FF2B1ED14B88022262F3C8134B80002034
:10515000C6E74B8843F4C0734B800020C0E76FF074
:10516000860070476FF0860070476FF085007047CB
:105170006FF08500B4E76FF08600B1E76FF086004E
:10518000AEE76FF08600ABE7949E00002DE9F04794
:1051900088B004460D4616461F4603F064FB814660
:1051A00018B1484608B0BDE8F08707A92046FFF7C8
:1051B00035FF81460028F4D19DF81C30C3F301135C
:1051C000012B28D0032B13D013B16FF08609E8E729
:1051D0002388B3F5105F7ED1A7F11002102A7DD885
:1051E000444BD34013F0010F26D16FF08609D8E766
:1051F000412F0BD0A7F11002102A72D83D4BD3409B
:1052000013F0010F1BD16FF08609CAE70136013F89
:10521000DFF8E4A003E0302F66D1DFF8E0A00F371D
:105220004FEA1718002444450CD2281903F0E7FA76
:1052300000285CD00134F6E7DFF8C4A0EFE7DFF820
:10524000B8A0ECE71F2F08D8002400940194029422
:10525000039404940594069420E04146284603F004
:10526000E8FA81460028EFD09BE7079B0693BDF83C
:105270001E30C3F3C1130493B318EC46B0585968F9
:105280009A68DB68ACE80F0069462819FFF764FEEE
:1052900080B91C21684603F067FA013444450DD2F9
:1052A00022010AEB04130593002CDED04FF0FF33EC
:1052B0000693DCE703F0D7FA6FF092091F2F7FF611
:1052C00070AFB9F1000F7FF46CAF4146284603F090
:1052D000F1FA814665E76FF0850962E76FF08609AC
:1052E0005FE76FF086095CE76FF0860959E76FF0BA
:1052F0008A0956E7010101000000002010840450D3
:105300004000815110B590B00023019302930393A4
:105310000493059306930793F82003F070FA28B1DD
:1053200001235BB90024204610B010BDF92003F022
:1053300066FA08B90023F4E70123F2E720220DEB17
:1053400002010020FFF72EFD04460028EBD14FF4A8
:1053500080740094684603F05DFA009B03930D4B44
:1053600004934FF41053ADF80430ADF806400A4BE7
:1053700002930A4B069320230DEB0302F82101A8A8
:10538000FFF704FF044620210DEB010003F0ECF9C8
:10539000C9E700BF0010C004014B4E80F800FF7F3A
:1053A0002DE9F04182B080460E4617461D464FF467
:1053B00080730193002000F075F9274C01AB236046
:1053C000264BA3601123E36004F110036360C4F86B
:1053D000108046F00056A66140F61103E36104F127
:1053E00020036361276245F00055A5622123E36233
:1053F000012161621A4B089A1A60099A42F0005220
:105400009A6059602022DA60BFF35F8F4FF0A342A9
:105410001460BFF35F8FBFF35F8F1361BFF35F8FC4
:10542000BFF35F8F03235363BFF35F8FBFF35F8FC0
:105430009363BFF35F8F4FF0FF3402E003F0B4FAE1
:105440000446B4F1FF3FF9D0002000F03BF92046BC
:1054500002B0BDE8F08100BF180C0020040000205D
:10546000080C0020BFF35F8F094B1B6BBFF35F8FEE
:105470005A08C3F34203052B04D012F0060F04D0E0
:10548000002070476FF0510070474FF0FF307047B9
:1054900000108051BFF35F8F054A1368BFF35F8F21
:1054A00043F00103BFF35F8F1360BFF35F8F70475B
:1054B00000108051BFF35F8F094A1368BFF35F8FFD
:1054C00043F48071BFF35F8F1160BFF35F8F23F4EC
:1054D0008073BFF35F8F1360BFF35F8F704700BFB0
:1054E00000108051BFF35F8F144B5B68BFF35F8F79
:1054F000032B1FD910B50446002212E0BFF35F8FC3
:105500000E4BD3F88010BFF35F8F131D9B0003F188
:10551000A34303F58053BFF35F8F1960BFF35F8F21
:105520000132032AEAD9204603F042FA01236360DC
:10553000002010BD4FF0FF30704700BF00108051B9
:1055400070B505460C46002303604360FFF764FA1C
:1055500001232B70FFF7AEFFBFF35F8F204BDB689B
:10556000BFF35F8F9B08013BA4B3226812B19A423C
:1055700029D81346A668606808B94FF40070E5683A
:1055800005B9F1252269BFF35F8F15498B60BFF321
:105590005F8FBFF35F8F0E64BFF35F8FBFF35F8FCB
:1055A0004D64BFF35F8FBFF35F8F4863BFF35F8FBF
:1055B00042F4802242F00102BFF35F8F0A60BFF322
:1055C0005F8F002070BDFFF747FA00232B706FF04C
:1055D0003F00F7E700224FF40070F1251646D2E7AE
:1055E000001080510378002B38D070B506460D4668
:1055F0001446FFF737FFE0B97368ABB1BFF35F8FB5
:10560000194B9B68BFF35F8F0133B4EB031F28D89E
:10561000BFF35F8F144B5B68BFF35F8FB4EB830FF7
:1056200011D94FF0FF3004E03046FFF75BFF002850
:10563000E4D070BD05F8012B120A0133013C032BA5
:1056400001D8002CF6D1002CF3D0BFF35F8F064BAE
:10565000D3F88020BFF35F8F0023F0E76FF02000C6
:1056600070476FF03F00E4E700108051BFF35F8F99
:105670004FF0A3430022DA61BFF35F8FBFF35F8F68
:105680004FF0FF321A63BFF35F8FBFF35F8F342297
:10569000DA61BFF35F8F024B0122C3F80423704726
:1056A0000080045010B50446FFF7B6F9044B1868A3
:1056B00003F0DDF90CB101232370FFF7D7FF10BD14
:1056C0003802002010B5044608B1037843B1FFF753
:1056D000C3F9044B186803F0D2F90CB1002323700E
:1056E00010BD00BF3802002008B5194BD3F80031B7
:1056F00023B9174BD3F80831CBB908BDBFF35F8F7F
:105700004FF0A343996ABFF35F8FBFF35F8F4FF0F2
:10571000FF321A63BFF35F8F0D4B0022C3F80021E5
:10572000D3F800310B4B186803F0C3F9E5E700F03C
:1057300071F803F062F9064B0022C3F80821D3F890
:1057400008310121044B186803F0B3F9D5E700BF15
:1057500000800450400200203C02002008B5074BA6
:10576000186803F090F9064B186803F08CF90022D2
:105770001146482000F030FE08BD00BF4002002066
:105780003C02002008B5054B1B780BB9002008BD72
:10579000034B186803F020F9F9E700BFBB0C0020A9
:1057A00040020020094B1B6D0BB10948704710B532
:1057B000064C1821204603F026F904F1500103F0AD
:1057C00025F901232365024810BD00BF480C0020C5
:1057D000980C002008B50D4B0022DA660C4A1A60BE
:1057E00002F5C0425A60FFF7DDFF68B1074B5B6D01
:1057F000B3F5007F05DC4FF40072044B9A60002083
:1058000008BD4FF48062F8E70E20F9E7480C00204D
:105810000020805100487047480C00202DE9F041DD
:1058200084B005460024019400F10C07EFF31188C1
:10583000202383F31288BFF36F8F836803EA020685
:10584000594011404B400293039401AA0D4902F0C4
:105850008DFE019C44B10021C4F888102046246EBE
:1058600002F028FE002CF6D1029B039A23EA0203E1
:10587000AB6041463846FEF755FB304604B0BDE804
:10588000F08100BFD58A00002DE9F04F43688DB04C
:1058900015468046029383789A0740F10D810024D3
:1058A0000E78002E00F00A81252E0BD04B1C03939E
:1058B000013441463046029B98470028C0F2F680EA
:1058C0000399EDE74E788B1C252E0393F0D000272B
:1058D000B946BB46BBF11F0F38D8A6F12003102BE9
:1058E0000AD8DFE803F02A09093009090921090962
:1058F0000928092D09091F00A6F13003092B33D906
:105900002A2E37D11BF0400F55F8043B40F082801F
:10591000002BA7BF4BF0200B9946C3F100094BF0B9
:10592000280B01E04BF0010B039B13F8016B039371
:10593000002ECFD130E04BF0020B4BF0040BF3E71D
:105940004BF0080BF0E74BF0100BEDE7BBF17F0FCE
:1059500019D8A6F13003092BD2D81BF0400F03D081
:105960000A2101FB0737DFE70A214BF0200B01FB7F
:105970000939D9E72E2E06D11BF0400F40F09E804A
:105980004BF0400BD0E76C2E31D02BD8682E36D0A0
:105990006A2E3CD04C2E3AD0002F46F02003B8BFE0
:1059A0002BF04002A3F16501BCBF00271FFA82FB68
:1059B000022901D9612B2FD107350727DFF8ACA2C7
:1059C00025F0070508351BF0080F66D00AEB070B1A
:1059D00056465E4563D1A4EB0A0AA9EB070906EB1C
:1059E0000A026FE1742E9FD07A2E9DD0D4E71BF06F
:1059F000800F18BF4BF4007B4BF0800B94E71BF437
:105A0000807F18BF4BF4007B4BF4807B8CE74BF41A
:105A1000207B89E71F4687E7A6F16301122900F280
:105A2000F080DFE811F013004F00EE00EE00EE0012
:105A3000EE004F00EE00EE00EE00EE00EE00FE0085
:105A4000E900EE00EE001B00EE00AF0055F8043B4D
:105A500001270DF1180A8DF81830B4E755F804AB9A
:105A6000834BBAF1000F08BF9A461BF0400F504617
:105A700014BF39464FF0FF3103F0CFF80746A2E7D5
:105A800041462020029B984700280FDB013EB74289
:105A9000F6D34C44B146A41B98E74E46F7E741467F
:105AA00016F8010B029B9847002892DA98F802300A
:105AB00043F0040388F802304FF0FF3420460DB065
:105AC000BDE8F08F1BF0800F34D01BF4007F2CD08A
:105AD000073525F00705AA4669685AF8080B2BF028
:105AE00010050029ADB237DA404245F4806561EB1C
:105AF00041010DF1180B0A235A4603F09AF8A0EB66
:105B00000B0301936B0662D5019B25F001019F42B7
:105B100089B240F3A180002E00F0998015F01002A8
:105B200040F09C80BB460D4623E0AA465AF8040B81
:105B3000C117D4E7AA461BF4807F5AF8041B01D191
:105B40000846F5E71BF4007F19BF48B241F3C011C6
:105B500008B241F3C031C2E750EA0103C9D11BF0DA
:105B6000400FC6D0002FC4D12BF01102BB460197C5
:105B700095B240F2064115EA01021CBF0BF1010B80
:105B800000222CE02BF010020A231FFA82FB1BF0EC
:105B9000800C49D01BF4007115BF0735AA4625F0CB
:105BA00007055AF8040B1EBFAA4669685AF8080B85
:105BB00050EA010545D12BF016051BF0400FADB2A0
:105BC00042D0002F40D12BF01702019795B215F06B
:105BD000100248D0019B002E42D103F1010B29078E
:105BE0005AD4EB0706D5D9456FDDA9EB0B03019914
:105BF000CB465F185B4649E04BF0100B102378262C
:105C0000C5E7782B04D1C6F1780343F01003BEE753
:105C100041462520029B98470028FFF647AF0234F3
:105C200047E608230026B2E7AA461BF480715AF81B
:105C3000040BBDD01BF400711ABFC0B2614680B224
:105C4000B6E72BF0060295B20DF1180B54E725F0DC
:105C50001105BB46ADB28CE70D46B8E73B460D4695
:105C600003F1020BBBE7DDF804B082E7B79E00004A
:105C7000B09E0000CDE9043241462020029B9847A7
:105C80000028FFF613AF049B059A01339945F1DC18
:105C9000A4EB0B019B46CC180AB341463020029B73
:105CA00098470028FFF602AF8EB901342744391B0C
:105CB000019B994224DC1D4655BB019AA9EB0B09B7
:105CC000554622441446914433E0019F92E7023442
:105CD00041463046029B98470028E7DAE6E640F264
:105CE00006410D42E2D015F0020F04F101044146D5
:105CF00014BF2B20202015F4806F18BF2D20E9E75A
:105D000041463020029B013498470028CFDACDE687
:105D100006AB013D4146585D029B98470028CBDA0F
:105D2000C4E641462020029B013498470028FFF634
:105D3000BDAEA9EB0403002BF3DCC1E5704710B541
:105D400084688AB1964602EB420C4FEA8C0CACF1A7
:105D50000C0C8C449CF8082042F002028CF80820BD
:105D6000A4687246A04710BD0020FCE700B585B0CE
:105D70000191029202228DF80C20012201A9FFF765
:105D8000DEFF05B05DF804FB00B585B0019102921D
:105D900003228DF80C20012201A9FFF7D0FF05B0E6
:105DA0005DF804FB08B520EAE072D1174B0143EA25
:105DB000D2634FEA421CBCEB020C63EB010E4FEACC
:105DC0008E1343EA9C634FEA8C10B0EB0C0063EB3C
:105DD0000E03DB0043EA5073C000801841EB03015F
:105DE0000018494140F2E733C0184FF47A724FF07F
:105DF000000341F10001FAF741FBFEF7A5F908BDE8
:105E000000EBC1018368B3F5004F0AD322B14B68A0
:105E100043F001034B6070474B6823F001034B6074
:105E2000704722B14B8843F001034B8070474B8889
:105E300023F001034B807047131D50F82330DBB96A
:105E4000C3684FF0010C0CFA02FC43EA0C03C36078
:105E5000043240F8221000EBC1038268B2F5004F13
:105E600006D399608268B2F5004F03D3D9607047BA
:105E70009980F7E7D980704710B500EBC30C8468B0
:105E8000B4F5004F1CD3DCF8082000EBC10EB4F5CC
:105E9000004F18D3CEF808208468B4F5004F15D30E
:105EA000CEF80C3000EBC2028368B3F5004F10D37C
:105EB000D1608368B3F5004F0DD3CCF8081010BD46
:105EC000BCF80420E1E7AEF80420E5E7AEF80630C0
